{
  "_format": "hh-sol-artifact-1",
  "contractName": "MyEpicGame",
  "sourceName": "contracts/MyEpicGame.sol",
  "abi": [
    {
      "inputs": [
        {
          "internalType": "string[]",
          "name": "characterNames",
          "type": "string[]"
        },
        {
          "internalType": "string[]",
          "name": "characterImageURIs",
          "type": "string[]"
        },
        {
          "internalType": "uint256[]",
          "name": "characterHp",
          "type": "uint256[]"
        },
        {
          "internalType": "uint256[]",
          "name": "characterAttackDmg",
          "type": "uint256[]"
        },
        {
          "internalType": "string",
          "name": "bossName",
          "type": "string"
        },
        {
          "internalType": "string",
          "name": "bossImageURI",
          "type": "string"
        },
        {
          "internalType": "uint256",
          "name": "bossHp",
          "type": "uint256"
        },
        {
          "internalType": "uint256",
          "name": "bossAttackDamage",
          "type": "uint256"
        }
      ],
      "stateMutability": "nonpayable",
      "type": "constructor"
    },
    {
      "anonymous": false,
      "inputs": [
        {
          "indexed": true,
          "internalType": "address",
          "name": "owner",
          "type": "address"
        },
        {
          "indexed": true,
          "internalType": "address",
          "name": "approved",
          "type": "address"
        },
        {
          "indexed": true,
          "internalType": "uint256",
          "name": "tokenId",
          "type": "uint256"
        }
      ],
      "name": "Approval",
      "type": "event"
    },
    {
      "anonymous": false,
      "inputs": [
        {
          "indexed": true,
          "internalType": "address",
          "name": "owner",
          "type": "address"
        },
        {
          "indexed": true,
          "internalType": "address",
          "name": "operator",
          "type": "address"
        },
        {
          "indexed": false,
          "internalType": "bool",
          "name": "approved",
          "type": "bool"
        }
      ],
      "name": "ApprovalForAll",
      "type": "event"
    },
    {
      "anonymous": false,
      "inputs": [
        {
          "indexed": false,
          "internalType": "enum MyEpicGame.AttackState",
          "name": "state",
          "type": "uint8"
        }
      ],
      "name": "AttackComplete",
      "type": "event"
    },
    {
      "anonymous": false,
      "inputs": [
        {
          "indexed": false,
          "internalType": "address",
          "name": "sender",
          "type": "address"
        },
        {
          "indexed": false,
          "internalType": "uint256",
          "name": "tokenId",
          "type": "uint256"
        },
        {
          "indexed": false,
          "internalType": "uint256",
          "name": "characterIndex",
          "type": "uint256"
        }
      ],
      "name": "CharacterNFTMinted",
      "type": "event"
    },
    {
      "anonymous": false,
      "inputs": [
        {
          "indexed": true,
          "internalType": "address",
          "name": "from",
          "type": "address"
        },
        {
          "indexed": true,
          "internalType": "address",
          "name": "to",
          "type": "address"
        },
        {
          "indexed": true,
          "internalType": "uint256",
          "name": "tokenId",
          "type": "uint256"
        }
      ],
      "name": "Transfer",
      "type": "event"
    },
    {
      "inputs": [
        {
          "internalType": "address",
          "name": "to",
          "type": "address"
        },
        {
          "internalType": "uint256",
          "name": "tokenId",
          "type": "uint256"
        }
      ],
      "name": "approve",
      "outputs": [],
      "stateMutability": "nonpayable",
      "type": "function"
    },
    {
      "inputs": [],
      "name": "attackBoss",
      "outputs": [],
      "stateMutability": "nonpayable",
      "type": "function"
    },
    {
      "inputs": [
        {
          "internalType": "address",
          "name": "owner",
          "type": "address"
        }
      ],
      "name": "balanceOf",
      "outputs": [
        {
          "internalType": "uint256",
          "name": "",
          "type": "uint256"
        }
      ],
      "stateMutability": "view",
      "type": "function"
    },
    {
      "inputs": [],
      "name": "bigBoss",
      "outputs": [
        {
          "internalType": "string",
          "name": "name",
          "type": "string"
        },
        {
          "internalType": "string",
          "name": "imageURI",
          "type": "string"
        },
        {
          "internalType": "uint256",
          "name": "hp",
          "type": "uint256"
        },
        {
          "internalType": "uint256",
          "name": "maxHp",
          "type": "uint256"
        },
        {
          "internalType": "uint256",
          "name": "attackDamage",
          "type": "uint256"
        }
      ],
      "stateMutability": "view",
      "type": "function"
    },
    {
      "inputs": [],
      "name": "buyHp",
      "outputs": [],
      "stateMutability": "payable",
      "type": "function"
    },
    {
      "inputs": [],
      "name": "checkIfUserHasNFT",
      "outputs": [
        {
          "components": [
            {
              "internalType": "uint256",
              "name": "characterIndex",
              "type": "uint256"
            },
            {
              "internalType": "string",
              "name": "name",
              "type": "string"
            },
            {
              "internalType": "string",
              "name": "imageURI",
              "type": "string"
            },
            {
              "internalType": "uint256",
              "name": "hp",
              "type": "uint256"
            },
            {
              "internalType": "uint256",
              "name": "maxHp",
              "type": "uint256"
            },
            {
              "internalType": "uint256",
              "name": "attackDamage",
              "type": "uint256"
            }
          ],
          "internalType": "struct MyEpicGame.CharacterAttributes",
          "name": "",
          "type": "tuple"
        }
      ],
      "stateMutability": "view",
      "type": "function"
    },
    {
      "inputs": [],
      "name": "getAllDefaultCharacters",
      "outputs": [
        {
          "components": [
            {
              "internalType": "uint256",
              "name": "characterIndex",
              "type": "uint256"
            },
            {
              "internalType": "string",
              "name": "name",
              "type": "string"
            },
            {
              "internalType": "string",
              "name": "imageURI",
              "type": "string"
            },
            {
              "internalType": "uint256",
              "name": "hp",
              "type": "uint256"
            },
            {
              "internalType": "uint256",
              "name": "maxHp",
              "type": "uint256"
            },
            {
              "internalType": "uint256",
              "name": "attackDamage",
              "type": "uint256"
            }
          ],
          "internalType": "struct MyEpicGame.CharacterAttributes[]",
          "name": "",
          "type": "tuple[]"
        }
      ],
      "stateMutability": "view",
      "type": "function"
    },
    {
      "inputs": [
        {
          "internalType": "uint256",
          "name": "tokenId",
          "type": "uint256"
        }
      ],
      "name": "getApproved",
      "outputs": [
        {
          "internalType": "address",
          "name": "",
          "type": "address"
        }
      ],
      "stateMutability": "view",
      "type": "function"
    },
    {
      "inputs": [],
      "name": "getBigBoss",
      "outputs": [
        {
          "components": [
            {
              "internalType": "string",
              "name": "name",
              "type": "string"
            },
            {
              "internalType": "string",
              "name": "imageURI",
              "type": "string"
            },
            {
              "internalType": "uint256",
              "name": "hp",
              "type": "uint256"
            },
            {
              "internalType": "uint256",
              "name": "maxHp",
              "type": "uint256"
            },
            {
              "internalType": "uint256",
              "name": "attackDamage",
              "type": "uint256"
            }
          ],
          "internalType": "struct MyEpicGame.BigBoss",
          "name": "",
          "type": "tuple"
        }
      ],
      "stateMutability": "view",
      "type": "function"
    },
    {
      "inputs": [
        {
          "internalType": "address",
          "name": "owner",
          "type": "address"
        },
        {
          "internalType": "address",
          "name": "operator",
          "type": "address"
        }
      ],
      "name": "isApprovedForAll",
      "outputs": [
        {
          "internalType": "bool",
          "name": "",
          "type": "bool"
        }
      ],
      "stateMutability": "view",
      "type": "function"
    },
    {
      "inputs": [
        {
          "internalType": "uint256",
          "name": "_characterIndex",
          "type": "uint256"
        }
      ],
      "name": "mintCharacterNFT",
      "outputs": [],
      "stateMutability": "nonpayable",
      "type": "function"
    },
    {
      "inputs": [],
      "name": "name",
      "outputs": [
        {
          "internalType": "string",
          "name": "",
          "type": "string"
        }
      ],
      "stateMutability": "view",
      "type": "function"
    },
    {
      "inputs": [
        {
          "internalType": "uint256",
          "name": "",
          "type": "uint256"
        }
      ],
      "name": "nftHolderAttributes",
      "outputs": [
        {
          "internalType": "uint256",
          "name": "characterIndex",
          "type": "uint256"
        },
        {
          "internalType": "string",
          "name": "name",
          "type": "string"
        },
        {
          "internalType": "string",
          "name": "imageURI",
          "type": "string"
        },
        {
          "internalType": "uint256",
          "name": "hp",
          "type": "uint256"
        },
        {
          "internalType": "uint256",
          "name": "maxHp",
          "type": "uint256"
        },
        {
          "internalType": "uint256",
          "name": "attackDamage",
          "type": "uint256"
        }
      ],
      "stateMutability": "view",
      "type": "function"
    },
    {
      "inputs": [
        {
          "internalType": "address",
          "name": "",
          "type": "address"
        }
      ],
      "name": "nftHolders",
      "outputs": [
        {
          "internalType": "uint256",
          "name": "",
          "type": "uint256"
        }
      ],
      "stateMutability": "view",
      "type": "function"
    },
    {
      "inputs": [
        {
          "internalType": "uint256",
          "name": "tokenId",
          "type": "uint256"
        }
      ],
      "name": "ownerOf",
      "outputs": [
        {
          "internalType": "address",
          "name": "",
          "type": "address"
        }
      ],
      "stateMutability": "view",
      "type": "function"
    },
    {
      "inputs": [
        {
          "internalType": "address",
          "name": "from",
          "type": "address"
        },
        {
          "internalType": "address",
          "name": "to",
          "type": "address"
        },
        {
          "internalType": "uint256",
          "name": "tokenId",
          "type": "uint256"
        }
      ],
      "name": "safeTransferFrom",
      "outputs": [],
      "stateMutability": "nonpayable",
      "type": "function"
    },
    {
      "inputs": [
        {
          "internalType": "address",
          "name": "from",
          "type": "address"
        },
        {
          "internalType": "address",
          "name": "to",
          "type": "address"
        },
        {
          "internalType": "uint256",
          "name": "tokenId",
          "type": "uint256"
        },
        {
          "internalType": "bytes",
          "name": "data",
          "type": "bytes"
        }
      ],
      "name": "safeTransferFrom",
      "outputs": [],
      "stateMutability": "nonpayable",
      "type": "function"
    },
    {
      "inputs": [
        {
          "internalType": "address",
          "name": "operator",
          "type": "address"
        },
        {
          "internalType": "bool",
          "name": "approved",
          "type": "bool"
        }
      ],
      "name": "setApprovalForAll",
      "outputs": [],
      "stateMutability": "nonpayable",
      "type": "function"
    },
    {
      "inputs": [
        {
          "internalType": "bytes4",
          "name": "interfaceId",
          "type": "bytes4"
        }
      ],
      "name": "supportsInterface",
      "outputs": [
        {
          "internalType": "bool",
          "name": "",
          "type": "bool"
        }
      ],
      "stateMutability": "view",
      "type": "function"
    },
    {
      "inputs": [],
      "name": "symbol",
      "outputs": [
        {
          "internalType": "string",
          "name": "",
          "type": "string"
        }
      ],
      "stateMutability": "view",
      "type": "function"
    },
    {
      "inputs": [
        {
          "internalType": "uint256",
          "name": "_tokenId",
          "type": "uint256"
        }
      ],
      "name": "tokenURI",
      "outputs": [
        {
          "internalType": "string",
          "name": "",
          "type": "string"
        }
      ],
      "stateMutability": "view",
      "type": "function"
    },
    {
      "inputs": [],
      "name": "totalPayedHp",
      "outputs": [
        {
          "internalType": "uint256",
          "name": "",
          "type": "uint256"
        }
      ],
      "stateMutability": "view",
      "type": "function"
    },
    {
      "inputs": [
        {
          "internalType": "address",
          "name": "from",
          "type": "address"
        },
        {
          "internalType": "address",
          "name": "to",
          "type": "address"
        },
        {
          "internalType": "uint256",
          "name": "tokenId",
          "type": "uint256"
        }
      ],
      "name": "transferFrom",
      "outputs": [],
      "stateMutability": "nonpayable",
      "type": "function"
    },
    {
      "inputs": [],
      "name": "withdraw",
      "outputs": [],
      "stateMutability": "payable",
      "type": "function"
    }
  ],
  "bytecode": "0x6080604052600060065560326007553480156200001b57600080fd5b506040516200588d3803806200588d8339818101604052810190620000419190620006d1565b6040518060400160405280600e81526020017f546865206c617374206f662075730000000000000000000000000000000000008152506040518060400160405280600481526020017f4845524f000000000000000000000000000000000000000000000000000000008152508160009081620000be919062000a95565b508060019081620000d0919062000a95565b50505033600960006101000a81548173ffffffffffffffffffffffffffffffffffffffff021916908373ffffffffffffffffffffffffffffffffffffffff1602179055506040518060a0016040528085815260200184815260200183815260200183815260200182815250600a600082015181600001908162000154919062000a95565b5060208201518160010190816200016c919062000a95565b5060408201518160020155606082015181600301556080820151816004015590505060005b8851811015620002f55760106040518060c001604052808381526020018b8481518110620001c457620001c362000b7c565b5b602002602001015181526020018a8481518110620001e757620001e662000b7c565b5b602002602001015181526020018984815181106200020a576200020962000b7c565b5b602002602001015181526020018984815181106200022d576200022c62000b7c565b5b6020026020010151815260200188848151811062000250576200024f62000b7c565b5b60200260200101518152509080600181540180825580915050600190039060005260206000209060060201600090919091909150600082015181600001556020820151816001019081620002a5919062000a95565b506040820151816002019081620002bd919062000a95565b50606082015181600301556080820151816004015560a082015181600501555050600181620002ed919062000bda565b905062000191565b506200030d600f6200031b60201b62001d651760201c565b505050505050505062000c15565b6001816000016000828254019250508190555050565b6000604051905090565b600080fd5b600080fd5b600080fd5b6000601f19601f8301169050919050565b7f4e487b7100000000000000000000000000000000000000000000000000000000600052604160045260246000fd5b62000395826200034a565b810181811067ffffffffffffffff82111715620003b757620003b66200035b565b5b80604052505050565b6000620003cc62000331565b9050620003da82826200038a565b919050565b600067ffffffffffffffff821115620003fd57620003fc6200035b565b5b602082029050602081019050919050565b600080fd5b600080fd5b600067ffffffffffffffff8211156200043657620004356200035b565b5b62000441826200034a565b9050602081019050919050565b60005b838110156200046e57808201518184015260208101905062000451565b60008484015250505050565b6000620004916200048b8462000418565b620003c0565b905082815260208101848484011115620004b057620004af62000413565b5b620004bd8482856200044e565b509392505050565b600082601f830112620004dd57620004dc62000345565b5b8151620004ef8482602086016200047a565b91505092915050565b60006200050f6200050984620003df565b620003c0565b905080838252602082019050602084028301858111156200053557620005346200040e565b5b835b818110156200058357805167ffffffffffffffff8111156200055e576200055d62000345565b5b8086016200056d8982620004c5565b8552602085019450505060208101905062000537565b5050509392505050565b600082601f830112620005a557620005a462000345565b5b8151620005b7848260208601620004f8565b91505092915050565b600067ffffffffffffffff821115620005de57620005dd6200035b565b5b602082029050602081019050919050565b6000819050919050565b6200060481620005ef565b81146200061057600080fd5b50565b6000815190506200062481620005f9565b92915050565b6000620006416200063b84620005c0565b620003c0565b905080838252602082019050602084028301858111156200066757620006666200040e565b5b835b818110156200069457806200067f888262000613565b84526020840193505060208101905062000669565b5050509392505050565b600082601f830112620006b657620006b562000345565b5b8151620006c88482602086016200062a565b91505092915050565b600080600080600080600080610100898b031215620006f557620006f46200033b565b5b600089015167ffffffffffffffff81111562000716576200071562000340565b5b620007248b828c016200058d565b985050602089015167ffffffffffffffff81111562000748576200074762000340565b5b620007568b828c016200058d565b975050604089015167ffffffffffffffff8111156200077a576200077962000340565b5b620007888b828c016200069e565b965050606089015167ffffffffffffffff811115620007ac57620007ab62000340565b5b620007ba8b828c016200069e565b955050608089015167ffffffffffffffff811115620007de57620007dd62000340565b5b620007ec8b828c01620004c5565b94505060a089015167ffffffffffffffff81111562000810576200080f62000340565b5b6200081e8b828c01620004c5565b93505060c0620008318b828c0162000613565b92505060e0620008448b828c0162000613565b9150509295985092959890939650565b600081519050919050565b7f4e487b7100000000000000000000000000000000000000000000000000000000600052602260045260246000fd5b60006002820490506001821680620008a757607f821691505b602082108103620008bd57620008bc6200085f565b5b50919050565b60008190508160005260206000209050919050565b60006020601f8301049050919050565b600082821b905092915050565b600060088302620009277fffffffffffffffffffffffffffffffffffffffffffffffffffffffffffffffff82620008e8565b620009338683620008e8565b95508019841693508086168417925050509392505050565b6000819050919050565b600062000976620009706200096a84620005ef565b6200094b565b620005ef565b9050919050565b6000819050919050565b620009928362000955565b620009aa620009a1826200097d565b848454620008f5565b825550505050565b600090565b620009c1620009b2565b620009ce81848462000987565b505050565b5b81811015620009f657620009ea600082620009b7565b600181019050620009d4565b5050565b601f82111562000a455762000a0f81620008c3565b62000a1a84620008d8565b8101602085101562000a2a578190505b62000a4262000a3985620008d8565b830182620009d3565b50505b505050565b600082821c905092915050565b600062000a6a6000198460080262000a4a565b1980831691505092915050565b600062000a85838362000a57565b9150826002028217905092915050565b62000aa08262000854565b67ffffffffffffffff81111562000abc5762000abb6200035b565b5b62000ac882546200088e565b62000ad5828285620009fa565b600060209050601f83116001811462000b0d576000841562000af8578287015190505b62000b04858262000a77565b86555062000b74565b601f19841662000b1d86620008c3565b60005b8281101562000b475784890151825560018201915060208501945060208101905062000b20565b8683101562000b67578489015162000b63601f89168262000a57565b8355505b6001600288020188555050505b505050505050565b7f4e487b7100000000000000000000000000000000000000000000000000000000600052603260045260246000fd5b7f4e487b7100000000000000000000000000000000000000000000000000000000600052601160045260246000fd5b600062000be782620005ef565b915062000bf483620005ef565b925082820190508082111562000c0f5762000c0e62000bab565b5b92915050565b614c688062000c256000396000f3fe60806040526004361061014b5760003560e01c806395d89b41116100b6578063c87b56dd1161006f578063c87b56dd1461047f578063c8cf27f4146104bc578063c9429010146104e7578063d4f24c5b14610512578063e985e9c514610529578063f8b81ef7146105665761014b565b806395d89b411461036657806398da4c9514610391578063a22cb465146103d3578063a9c32679146103fc578063b88d4fde1461042b578063b953084e146104545761014b565b80633ccfd60b116101085780633ccfd60b1461027257806342842e0e1461027c5780636352211e146102a557806370a08231146102e25780637df124a11461031f578063856850841461035c5761014b565b806301ffc9a7146101505780630665f9611461018d57806306fdde03146101b8578063081812fc146101e3578063095ea7b31461022057806323b872dd14610249575b600080fd5b34801561015c57600080fd5b5061017760048036038101906101729190612e04565b61058f565b6040516101849190612e4c565b60405180910390f35b34801561019957600080fd5b506101a2610671565b6040516101af9190612f8d565b60405180910390f35b3480156101c457600080fd5b506101cd6107cd565b6040516101da9190612ff9565b60405180910390f35b3480156101ef57600080fd5b5061020a60048036038101906102059190613047565b61085f565b60405161021791906130b5565b60405180910390f35b34801561022c57600080fd5b50610247600480360381019061024291906130fc565b6108a5565b005b34801561025557600080fd5b50610270600480360381019061026b919061313c565b6109bc565b005b61027a610a1c565b005b34801561028857600080fd5b506102a3600480360381019061029e919061313c565b610bc9565b005b3480156102b157600080fd5b506102cc60048036038101906102c79190613047565b610be9565b6040516102d991906130b5565b60405180910390f35b3480156102ee57600080fd5b506103096004803603810190610304919061318f565b610c6f565b60405161031691906131cb565b60405180910390f35b34801561032b57600080fd5b506103466004803603810190610341919061318f565b610d26565b60405161035391906131cb565b60405180910390f35b610364610d3e565b005b34801561037257600080fd5b5061037b610e58565b6040516103889190612ff9565b60405180910390f35b34801561039d57600080fd5b506103b860048036038101906103b39190613047565b610eea565b6040516103ca969594939291906131e6565b60405180910390f35b3480156103df57600080fd5b506103fa60048036038101906103f59190613281565b611036565b005b34801561040857600080fd5b5061041161104c565b6040516104229594939291906132c1565b60405180910390f35b34801561043757600080fd5b50610452600480360381019061044d9190613457565b611180565b005b34801561046057600080fd5b506104696111e2565b604051610476919061362c565b60405180910390f35b34801561048b57600080fd5b506104a660048036038101906104a19190613047565b61138d565b6040516104b39190612ff9565b60405180910390f35b3480156104c857600080fd5b506104d16115a8565b6040516104de91906136de565b60405180910390f35b3480156104f357600080fd5b506104fc611780565b60405161050991906131cb565b60405180910390f35b34801561051e57600080fd5b50610527611786565b005b34801561053557600080fd5b50610550600480360381019061054b9190613700565b6119cc565b60405161055d9190612e4c565b60405180910390f35b34801561057257600080fd5b5061058d60048036038101906105889190613047565b611a60565b005b60007f80ac58cd000000000000000000000000000000000000000000000000000000007bffffffffffffffffffffffffffffffffffffffffffffffffffffffff1916827bffffffffffffffffffffffffffffffffffffffffffffffffffffffff1916148061065a57507f5b5e139f000000000000000000000000000000000000000000000000000000007bffffffffffffffffffffffffffffffffffffffffffffffffffffffff1916827bffffffffffffffffffffffffffffffffffffffffffffffffffffffff1916145b8061066a575061066982611d7b565b5b9050919050565b610679612d33565b600a6040518060a00160405290816000820180546106969061376f565b80601f01602080910402602001604051908101604052809291908181526020018280546106c29061376f565b801561070f5780601f106106e45761010080835404028352916020019161070f565b820191906000526020600020905b8154815290600101906020018083116106f257829003601f168201915b505050505081526020016001820180546107289061376f565b80601f01602080910402602001604051908101604052809291908181526020018280546107549061376f565b80156107a15780601f10610776576101008083540402835291602001916107a1565b820191906000526020600020905b81548152906001019060200180831161078457829003601f168201915b505050505081526020016002820154815260200160038201548152602001600482015481525050905090565b6060600080546107dc9061376f565b80601f01602080910402602001604051908101604052809291908181526020018280546108089061376f565b80156108555780601f1061082a57610100808354040283529160200191610855565b820191906000526020600020905b81548152906001019060200180831161083857829003601f168201915b5050505050905090565b600061086a82611de5565b6004600083815260200190815260200160002060009054906101000a900473ffffffffffffffffffffffffffffffffffffffff169050919050565b60006108b082610be9565b90508073ffffffffffffffffffffffffffffffffffffffff168373ffffffffffffffffffffffffffffffffffffffff1603610920576040517f08c379a000000000000000000000000000000000000000000000000000000000815260040161091790613812565b60405180910390fd5b8073ffffffffffffffffffffffffffffffffffffffff1661093f611e30565b73ffffffffffffffffffffffffffffffffffffffff16148061096e575061096d81610968611e30565b6119cc565b5b6109ad576040517f08c379a00000000000000000000000000000000000000000000000000000000081526004016109a4906138a4565b60405180910390fd5b6109b78383611e38565b505050565b6109cd6109c7611e30565b82611ef1565b610a0c576040517f08c379a0000000000000000000000000000000000000000000000000000000008152600401610a0390613936565b60405180910390fd5b610a17838383611f86565b505050565b3373ffffffffffffffffffffffffffffffffffffffff16600960009054906101000a900473ffffffffffffffffffffffffffffffffffffffff1673ffffffffffffffffffffffffffffffffffffffff1614610aac576040517f08c379a0000000000000000000000000000000000000000000000000000000008152600401610aa3906139a2565b60405180910390fd5b6000471015610af0576040517f08c379a0000000000000000000000000000000000000000000000000000000008152600401610ae790613a34565b60405180910390fd5b6000600960009054906101000a900473ffffffffffffffffffffffffffffffffffffffff1673ffffffffffffffffffffffffffffffffffffffff1647604051610b3890613a85565b60006040518083038185875af1925050503d8060008114610b75576040519150601f19603f3d011682016040523d82523d6000602084013e610b7a565b606091505b50509050600060088190555080610bc6576040517f08c379a0000000000000000000000000000000000000000000000000000000008152600401610bbd90613ae6565b60405180910390fd5b50565b610be483838360405180602001604052806000815250611180565b505050565b600080610bf58361227f565b9050600073ffffffffffffffffffffffffffffffffffffffff168173ffffffffffffffffffffffffffffffffffffffff1603610c66576040517f08c379a0000000000000000000000000000000000000000000000000000000008152600401610c5d90613b52565b60405180910390fd5b80915050919050565b60008073ffffffffffffffffffffffffffffffffffffffff168273ffffffffffffffffffffffffffffffffffffffff1603610cdf576040517f08c379a0000000000000000000000000000000000000000000000000000000008152600401610cd690613be4565b60405180910390fd5b600360008373ffffffffffffffffffffffffffffffffffffffff1673ffffffffffffffffffffffffffffffffffffffff168152602001908152602001600020549050919050565b60126020528060005260406000206000915090505481565b66038d7ea4c680003414610d87576040517f08c379a0000000000000000000000000000000000000000000000000000000008152600401610d7e90613c76565b60405180910390fd5b6000601260003373ffffffffffffffffffffffffffffffffffffffff1673ffffffffffffffffffffffffffffffffffffffff16815260200190815260200160002054905060008111610e0e576040517f08c379a0000000000000000000000000000000000000000000000000000000008152600401610e0590613ce2565b60405180910390fd5b6032601160008381526020019081526020016000206003016000828254610e359190613d31565b925050819055503460086000828254610e4e9190613d31565b9250508190555050565b606060018054610e679061376f565b80601f0160208091040260200160405190810160405280929190818152602001828054610e939061376f565b8015610ee05780601f10610eb557610100808354040283529160200191610ee0565b820191906000526020600020905b815481529060010190602001808311610ec357829003601f168201915b5050505050905090565b6011602052806000526040600020600091509050806000015490806001018054610f139061376f565b80601f0160208091040260200160405190810160405280929190818152602001828054610f3f9061376f565b8015610f8c5780601f10610f6157610100808354040283529160200191610f8c565b820191906000526020600020905b815481529060010190602001808311610f6f57829003601f168201915b505050505090806002018054610fa19061376f565b80601f0160208091040260200160405190810160405280929190818152602001828054610fcd9061376f565b801561101a5780601f10610fef5761010080835404028352916020019161101a565b820191906000526020600020905b815481529060010190602001808311610ffd57829003601f168201915b5050505050908060030154908060040154908060050154905086565b611048611041611e30565b83836122bc565b5050565b600a80600001805461105d9061376f565b80601f01602080910402602001604051908101604052809291908181526020018280546110899061376f565b80156110d65780601f106110ab576101008083540402835291602001916110d6565b820191906000526020600020905b8154815290600101906020018083116110b957829003601f168201915b5050505050908060010180546110eb9061376f565b80601f01602080910402602001604051908101604052809291908181526020018280546111179061376f565b80156111645780601f1061113957610100808354040283529160200191611164565b820191906000526020600020905b81548152906001019060200180831161114757829003601f168201915b5050505050908060020154908060030154908060040154905085565b61119161118b611e30565b83611ef1565b6111d0576040517f08c379a00000000000000000000000000000000000000000000000000000000081526004016111c790613936565b60405180910390fd5b6111dc84848484612428565b50505050565b60606010805480602002602001604051908101604052809291908181526020016000905b8282101561138457838290600052602060002090600602016040518060c0016040529081600082015481526020016001820180546112439061376f565b80601f016020809104026020016040519081016040528092919081815260200182805461126f9061376f565b80156112bc5780601f10611291576101008083540402835291602001916112bc565b820191906000526020600020905b81548152906001019060200180831161129f57829003601f168201915b505050505081526020016002820180546112d59061376f565b80601f01602080910402602001604051908101604052809291908181526020018280546113019061376f565b801561134e5780601f106113235761010080835404028352916020019161134e565b820191906000526020600020905b81548152906001019060200180831161133157829003601f168201915b50505050508152602001600382015481526020016004820154815260200160058201548152505081526020019060010190611206565b50505050905090565b60606000601160008481526020019081526020016000206040518060c0016040529081600082015481526020016001820180546113c99061376f565b80601f01602080910402602001604051908101604052809291908181526020018280546113f59061376f565b80156114425780601f1061141757610100808354040283529160200191611442565b820191906000526020600020905b81548152906001019060200180831161142557829003601f168201915b5050505050815260200160028201805461145b9061376f565b80601f01602080910402602001604051908101604052809291908181526020018280546114879061376f565b80156114d45780601f106114a9576101008083540402835291602001916114d4565b820191906000526020600020905b8154815290600101906020018083116114b757829003601f168201915b5050505050815260200160038201548152602001600482015481526020016005820154815250509050600061150c8260600151612484565b9050600061151d8360800151612484565b9050600061152e8460a00151612484565b90506000611574856020015161154389612484565b876040015187878760405160200161156096959493929190614073565b604051602081830303815290604052612552565b90506000816040516020016115899190614164565b6040516020818303038152906040529050809650505050505050919050565b6115b0612d62565b6000601260003373ffffffffffffffffffffffffffffffffffffffff1673ffffffffffffffffffffffffffffffffffffffff168152602001908152602001600020549050600081111561176f57601160008281526020019081526020016000206040518060c0016040529081600082015481526020016001820180546116359061376f565b80601f01602080910402602001604051908101604052809291908181526020018280546116619061376f565b80156116ae5780601f10611683576101008083540402835291602001916116ae565b820191906000526020600020905b81548152906001019060200180831161169157829003601f168201915b505050505081526020016002820180546116c79061376f565b80601f01602080910402602001604051908101604052809291908181526020018280546116f39061376f565b80156117405780601f1061171557610100808354040283529160200191611740565b820191906000526020600020905b81548152906001019060200180831161172357829003601f168201915b50505050508152602001600382015481526020016004820154815260200160058201548152505091505061177d565b611777612d62565b80925050505b90565b60085481565b6000601260003373ffffffffffffffffffffffffffffffffffffffff1673ffffffffffffffffffffffffffffffffffffffff16815260200190815260200160002054905060006011600083815260200190815260200160002090506000816003015411611828576040517f08c379a000000000000000000000000000000000000000000000000000000000815260040161181f906141f8565b60405180910390fd5b6000600a6002015411611870576040517f08c379a00000000000000000000000000000000000000000000000000000000081526004016118679061428a565b60405180910390fd5b8060050154600a6002015410156118c9576000600a600201819055507fc3231fb70133bc718634f2c9440e5cdedb09228cbed13a1ff91d47f3cc14cd8360026040516118bc9190614321565b60405180910390a16119c8565b60056118d5600a6126e9565b1115611950578060050154600a600201546118f0919061433c565b600a60020181905550600754816003015461190b9190613d31565b81600301819055507fc3231fb70133bc718634f2c9440e5cdedb09228cbed13a1ff91d47f3cc14cd8360006040516119439190614321565b60405180910390a16119c7565b600a6004015481600301541015611970576000816003018190555061198e565b600a600401548160030154611985919061433c565b81600301819055505b7fc3231fb70133bc718634f2c9440e5cdedb09228cbed13a1ff91d47f3cc14cd8360016040516119be9190614321565b60405180910390a15b5b5050565b6000600560008473ffffffffffffffffffffffffffffffffffffffff1673ffffffffffffffffffffffffffffffffffffffff16815260200190815260200160002060008373ffffffffffffffffffffffffffffffffffffffff1673ffffffffffffffffffffffffffffffffffffffff16815260200190815260200160002060009054906101000a900460ff16905092915050565b6000611a6c600f612745565b9050611a783382612753565b6040518060c0016040528083815260200160108481548110611a9d57611a9c614370565b5b90600052602060002090600602016001018054611ab99061376f565b80601f0160208091040260200160405190810160405280929190818152602001828054611ae59061376f565b8015611b325780601f10611b0757610100808354040283529160200191611b32565b820191906000526020600020905b815481529060010190602001808311611b1557829003601f168201915b5050505050815260200160108481548110611b5057611b4f614370565b5b90600052602060002090600602016002018054611b6c9061376f565b80601f0160208091040260200160405190810160405280929190818152602001828054611b989061376f565b8015611be55780601f10611bba57610100808354040283529160200191611be5565b820191906000526020600020905b815481529060010190602001808311611bc857829003601f168201915b5050505050815260200160108481548110611c0357611c02614370565b5b906000526020600020906006020160030154815260200160108481548110611c2e57611c2d614370565b5b906000526020600020906006020160040154815260200160108481548110611c5957611c58614370565b5b90600052602060002090600602016005015481525060116000838152602001908152602001600020600082015181600001556020820151816001019081611ca0919061454b565b506040820151816002019081611cb6919061454b565b50606082015181600301556080820151816004015560a0820151816005015590505080601260003373ffffffffffffffffffffffffffffffffffffffff1673ffffffffffffffffffffffffffffffffffffffff16815260200190815260200160002081905550611d26600f611d65565b7f4bc303fd457a97b4691b9af582ce71868a3d258638c8d4f8c60988a0f0bfb8cd338284604051611d599392919061461d565b60405180910390a15050565b6001816000016000828254019250508190555050565b60007f01ffc9a7000000000000000000000000000000000000000000000000000000007bffffffffffffffffffffffffffffffffffffffffffffffffffffffff1916827bffffffffffffffffffffffffffffffffffffffffffffffffffffffff1916149050919050565b611dee81612771565b611e2d576040517f08c379a0000000000000000000000000000000000000000000000000000000008152600401611e2490613b52565b60405180910390fd5b50565b600033905090565b816004600083815260200190815260200160002060006101000a81548173ffffffffffffffffffffffffffffffffffffffff021916908373ffffffffffffffffffffffffffffffffffffffff160217905550808273ffffffffffffffffffffffffffffffffffffffff16611eab83610be9565b73ffffffffffffffffffffffffffffffffffffffff167f8c5be1e5ebec7d5bd14f71427d1e84f3dd0314c0f7b2291e5b200ac8c7c3b92560405160405180910390a45050565b600080611efd83610be9565b90508073ffffffffffffffffffffffffffffffffffffffff168473ffffffffffffffffffffffffffffffffffffffff161480611f3f5750611f3e81856119cc565b5b80611f7d57508373ffffffffffffffffffffffffffffffffffffffff16611f658461085f565b73ffffffffffffffffffffffffffffffffffffffff16145b91505092915050565b8273ffffffffffffffffffffffffffffffffffffffff16611fa682610be9565b73ffffffffffffffffffffffffffffffffffffffff1614611ffc576040517f08c379a0000000000000000000000000000000000000000000000000000000008152600401611ff3906146c6565b60405180910390fd5b600073ffffffffffffffffffffffffffffffffffffffff168273ffffffffffffffffffffffffffffffffffffffff160361206b576040517f08c379a000000000000000000000000000000000000000000000000000000000815260040161206290614758565b60405180910390fd5b61207883838360016127b2565b8273ffffffffffffffffffffffffffffffffffffffff1661209882610be9565b73ffffffffffffffffffffffffffffffffffffffff16146120ee576040517f08c379a00000000000000000000000000000000000000000000000000000000081526004016120e5906146c6565b60405180910390fd5b6004600082815260200190815260200160002060006101000a81549073ffffffffffffffffffffffffffffffffffffffff02191690556001600360008573ffffffffffffffffffffffffffffffffffffffff1673ffffffffffffffffffffffffffffffffffffffff168152602001908152602001600020600082825403925050819055506001600360008473ffffffffffffffffffffffffffffffffffffffff1673ffffffffffffffffffffffffffffffffffffffff16815260200190815260200160002060008282540192505081905550816002600083815260200190815260200160002060006101000a81548173ffffffffffffffffffffffffffffffffffffffff021916908373ffffffffffffffffffffffffffffffffffffffff160217905550808273ffffffffffffffffffffffffffffffffffffffff168473ffffffffffffffffffffffffffffffffffffffff167fddf252ad1be2c89b69c2b068fc378daa952ba7f163c4a11628f55a4df523b3ef60405160405180910390a461227a83838360016127b8565b505050565b60006002600083815260200190815260200160002060009054906101000a900473ffffffffffffffffffffffffffffffffffffffff169050919050565b8173ffffffffffffffffffffffffffffffffffffffff168373ffffffffffffffffffffffffffffffffffffffff160361232a576040517f08c379a0000000000000000000000000000000000000000000000000000000008152600401612321906147c4565b60405180910390fd5b80600560008573ffffffffffffffffffffffffffffffffffffffff1673ffffffffffffffffffffffffffffffffffffffff16815260200190815260200160002060008473ffffffffffffffffffffffffffffffffffffffff1673ffffffffffffffffffffffffffffffffffffffff16815260200190815260200160002060006101000a81548160ff0219169083151502179055508173ffffffffffffffffffffffffffffffffffffffff168373ffffffffffffffffffffffffffffffffffffffff167f17307eab39ab6107e8899845ad3d59bd9653f200f220920489ca2b5937696c318360405161241b9190612e4c565b60405180910390a3505050565b612433848484611f86565b61243f848484846127be565b61247e576040517f08c379a000000000000000000000000000000000000000000000000000000000815260040161247590614856565b60405180910390fd5b50505050565b60606000600161249384612945565b01905060008167ffffffffffffffff8111156124b2576124b161332c565b5b6040519080825280601f01601f1916602001820160405280156124e45781602001600182028036833780820191505090505b509050600082602001820190505b600115612547578080600190039150507f3031323334353637383961626364656600000000000000000000000000000000600a86061a8153600a858161253b5761253a614876565b5b049450600085036124f2575b819350505050919050565b60606000825190506000810361257a57604051806020016040528060008152509150506126e4565b6000600360028361258b9190613d31565b61259591906148a5565b60046125a191906148d6565b905060006020826125b29190613d31565b67ffffffffffffffff8111156125cb576125ca61332c565b5b6040519080825280601f01601f1916602001820160405280156125fd5781602001600182028036833780820191505090505b5090506000604051806060016040528060408152602001614bf3604091399050600181016020830160005b868110156126a15760038101905062ffffff818a015116603f8160121c168401518060081b905060ff603f83600c1c1686015116810190508060081b905060ff603f8360061c1686015116810190508060081b905060ff603f831686015116810190508060e01b90508084526004840193505050612628565b5060038606600181146126bb57600281146126cb576126d6565b613d3d60f01b60028303526126d6565b603d60f81b60018303525b508484525050819450505050505b919050565b6000600660008154809291906126fe90614918565b919050555081423360065460405160200161271b939291906149c9565b6040516020818303038152906040528051906020012060001c61273e9190614a06565b9050919050565b600081600001549050919050565b61276d828260405180602001604052806000815250612a98565b5050565b60008073ffffffffffffffffffffffffffffffffffffffff166127938361227f565b73ffffffffffffffffffffffffffffffffffffffff1614159050919050565b50505050565b50505050565b60006127df8473ffffffffffffffffffffffffffffffffffffffff16612af3565b15612938578373ffffffffffffffffffffffffffffffffffffffff1663150b7a02612808611e30565b8786866040518563ffffffff1660e01b815260040161282a9493929190614a8c565b6020604051808303816000875af192505050801561286657506040513d601f19601f820116820180604052508101906128639190614aed565b60015b6128e8573d8060008114612896576040519150601f19603f3d011682016040523d82523d6000602084013e61289b565b606091505b5060008151036128e0576040517f08c379a00000000000000000000000000000000000000000000000000000000081526004016128d790614856565b60405180910390fd5b805181602001fd5b63150b7a0260e01b7bffffffffffffffffffffffffffffffffffffffffffffffffffffffff1916817bffffffffffffffffffffffffffffffffffffffffffffffffffffffff19161491505061293d565b600190505b949350505050565b600080600090507a184f03e93ff9f4daa797ed6e38ed64bf6a1f01000000000000000083106129a3577a184f03e93ff9f4daa797ed6e38ed64bf6a1f010000000000000000838161299957612998614876565b5b0492506040810190505b6d04ee2d6d415b85acef810000000083106129e0576d04ee2d6d415b85acef810000000083816129d6576129d5614876565b5b0492506020810190505b662386f26fc100008310612a0f57662386f26fc100008381612a0557612a04614876565b5b0492506010810190505b6305f5e1008310612a38576305f5e1008381612a2e57612a2d614876565b5b0492506008810190505b6127108310612a5d576127108381612a5357612a52614876565b5b0492506004810190505b60648310612a805760648381612a7657612a75614876565b5b0492506002810190505b600a8310612a8f576001810190505b80915050919050565b612aa28383612b16565b612aaf60008484846127be565b612aee576040517f08c379a0000000000000000000000000000000000000000000000000000000008152600401612ae590614856565b60405180910390fd5b505050565b6000808273ffffffffffffffffffffffffffffffffffffffff163b119050919050565b600073ffffffffffffffffffffffffffffffffffffffff168273ffffffffffffffffffffffffffffffffffffffff1603612b85576040517f08c379a0000000000000000000000000000000000000000000000000000000008152600401612b7c90614b66565b60405180910390fd5b612b8e81612771565b15612bce576040517f08c379a0000000000000000000000000000000000000000000000000000000008152600401612bc590614bd2565b60405180910390fd5b612bdc6000838360016127b2565b612be581612771565b15612c25576040517f08c379a0000000000000000000000000000000000000000000000000000000008152600401612c1c90614bd2565b60405180910390fd5b6001600360008473ffffffffffffffffffffffffffffffffffffffff1673ffffffffffffffffffffffffffffffffffffffff16815260200190815260200160002060008282540192505081905550816002600083815260200190815260200160002060006101000a81548173ffffffffffffffffffffffffffffffffffffffff021916908373ffffffffffffffffffffffffffffffffffffffff160217905550808273ffffffffffffffffffffffffffffffffffffffff16600073ffffffffffffffffffffffffffffffffffffffff167fddf252ad1be2c89b69c2b068fc378daa952ba7f163c4a11628f55a4df523b3ef60405160405180910390a4612d2f6000838360016127b8565b5050565b6040518060a0016040528060608152602001606081526020016000815260200160008152602001600081525090565b6040518060c001604052806000815260200160608152602001606081526020016000815260200160008152602001600081525090565b6000604051905090565b600080fd5b600080fd5b60007fffffffff0000000000000000000000000000000000000000000000000000000082169050919050565b612de181612dac565b8114612dec57600080fd5b50565b600081359050612dfe81612dd8565b92915050565b600060208284031215612e1a57612e19612da2565b5b6000612e2884828501612def565b91505092915050565b60008115159050919050565b612e4681612e31565b82525050565b6000602082019050612e616000830184612e3d565b92915050565b600081519050919050565b600082825260208201905092915050565b60005b83811015612ea1578082015181840152602081019050612e86565b60008484015250505050565b6000601f19601f8301169050919050565b6000612ec982612e67565b612ed38185612e72565b9350612ee3818560208601612e83565b612eec81612ead565b840191505092915050565b6000819050919050565b612f0a81612ef7565b82525050565b600060a0830160008301518482036000860152612f2d8282612ebe565b91505060208301518482036020860152612f478282612ebe565b9150506040830151612f5c6040860182612f01565b506060830151612f6f6060860182612f01565b506080830151612f826080860182612f01565b508091505092915050565b60006020820190508181036000830152612fa78184612f10565b905092915050565b600082825260208201905092915050565b6000612fcb82612e67565b612fd58185612faf565b9350612fe5818560208601612e83565b612fee81612ead565b840191505092915050565b600060208201905081810360008301526130138184612fc0565b905092915050565b61302481612ef7565b811461302f57600080fd5b50565b6000813590506130418161301b565b92915050565b60006020828403121561305d5761305c612da2565b5b600061306b84828501613032565b91505092915050565b600073ffffffffffffffffffffffffffffffffffffffff82169050919050565b600061309f82613074565b9050919050565b6130af81613094565b82525050565b60006020820190506130ca60008301846130a6565b92915050565b6130d981613094565b81146130e457600080fd5b50565b6000813590506130f6816130d0565b92915050565b6000806040838503121561311357613112612da2565b5b6000613121858286016130e7565b925050602061313285828601613032565b9150509250929050565b60008060006060848603121561315557613154612da2565b5b6000613163868287016130e7565b9350506020613174868287016130e7565b925050604061318586828701613032565b9150509250925092565b6000602082840312156131a5576131a4612da2565b5b60006131b3848285016130e7565b91505092915050565b6131c581612ef7565b82525050565b60006020820190506131e060008301846131bc565b92915050565b600060c0820190506131fb60008301896131bc565b818103602083015261320d8188612fc0565b905081810360408301526132218187612fc0565b905061323060608301866131bc565b61323d60808301856131bc565b61324a60a08301846131bc565b979650505050505050565b61325e81612e31565b811461326957600080fd5b50565b60008135905061327b81613255565b92915050565b6000806040838503121561329857613297612da2565b5b60006132a6858286016130e7565b92505060206132b78582860161326c565b9150509250929050565b600060a08201905081810360008301526132db8188612fc0565b905081810360208301526132ef8187612fc0565b90506132fe60408301866131bc565b61330b60608301856131bc565b61331860808301846131bc565b9695505050505050565b600080fd5b600080fd5b7f4e487b7100000000000000000000000000000000000000000000000000000000600052604160045260246000fd5b61336482612ead565b810181811067ffffffffffffffff821117156133835761338261332c565b5b80604052505050565b6000613396612d98565b90506133a2828261335b565b919050565b600067ffffffffffffffff8211156133c2576133c161332c565b5b6133cb82612ead565b9050602081019050919050565b82818337600083830152505050565b60006133fa6133f5846133a7565b61338c565b90508281526020810184848401111561341657613415613327565b5b6134218482856133d8565b509392505050565b600082601f83011261343e5761343d613322565b5b813561344e8482602086016133e7565b91505092915050565b6000806000806080858703121561347157613470612da2565b5b600061347f878288016130e7565b9450506020613490878288016130e7565b93505060406134a187828801613032565b925050606085013567ffffffffffffffff8111156134c2576134c1612da7565b5b6134ce87828801613429565b91505092959194509250565b600081519050919050565b600082825260208201905092915050565b6000819050602082019050919050565b600060c08301600083015161351e6000860182612f01565b50602083015184820360208601526135368282612ebe565b915050604083015184820360408601526135508282612ebe565b91505060608301516135656060860182612f01565b5060808301516135786080860182612f01565b5060a083015161358b60a0860182612f01565b508091505092915050565b60006135a28383613506565b905092915050565b6000602082019050919050565b60006135c2826134da565b6135cc81856134e5565b9350836020820285016135de856134f6565b8060005b8581101561361a57848403895281516135fb8582613596565b9450613606836135aa565b925060208a019950506001810190506135e2565b50829750879550505050505092915050565b6000602082019050818103600083015261364681846135b7565b905092915050565b600060c0830160008301516136666000860182612f01565b506020830151848203602086015261367e8282612ebe565b915050604083015184820360408601526136988282612ebe565b91505060608301516136ad6060860182612f01565b5060808301516136c06080860182612f01565b5060a08301516136d360a0860182612f01565b508091505092915050565b600060208201905081810360008301526136f8818461364e565b905092915050565b6000806040838503121561371757613716612da2565b5b6000613725858286016130e7565b9250506020613736858286016130e7565b9150509250929050565b7f4e487b7100000000000000000000000000000000000000000000000000000000600052602260045260246000fd5b6000600282049050600182168061378757607f821691505b60208210810361379a57613799613740565b5b50919050565b7f4552433732313a20617070726f76616c20746f2063757272656e74206f776e6560008201527f7200000000000000000000000000000000000000000000000000000000000000602082015250565b60006137fc602183612faf565b9150613807826137a0565b604082019050919050565b6000602082019050818103600083015261382b816137ef565b9050919050565b7f4552433732313a20617070726f76652063616c6c6572206973206e6f7420746f60008201527f6b656e206f776e6572206f7220617070726f76656420666f7220616c6c000000602082015250565b600061388e603d83612faf565b915061389982613832565b604082019050919050565b600060208201905081810360008301526138bd81613881565b9050919050565b7f4552433732313a2063616c6c6572206973206e6f7420746f6b656e206f776e6560008201527f72206f7220617070726f76656400000000000000000000000000000000000000602082015250565b6000613920602d83612faf565b915061392b826138c4565b604082019050919050565b6000602082019050818103600083015261394f81613913565b9050919050565b7f4f6e6c79206f776e65722063616e207769746864726177206d6f6e6579000000600082015250565b600061398c601d83612faf565b915061399782613956565b602082019050919050565b600060208201905081810360008301526139bb8161397f565b9050919050565b7f4e6f7420656e6f7567682066756e647320696e20636f6e74726163742062616c60008201527f616e63652e000000000000000000000000000000000000000000000000000000602082015250565b6000613a1e602583612faf565b9150613a29826139c2565b604082019050919050565b60006020820190508181036000830152613a4d81613a11565b9050919050565b600081905092915050565b50565b6000613a6f600083613a54565b9150613a7a82613a5f565b600082019050919050565b6000613a9082613a62565b9150819050919050565b7f5769746864726177616c206661696c65642e0000000000000000000000000000600082015250565b6000613ad0601283612faf565b9150613adb82613a9a565b602082019050919050565b60006020820190508181036000830152613aff81613ac3565b9050919050565b7f4552433732313a20696e76616c696420746f6b656e2049440000000000000000600082015250565b6000613b3c601883612faf565b9150613b4782613b06565b602082019050919050565b60006020820190508181036000830152613b6b81613b2f565b9050919050565b7f4552433732313a2061646472657373207a65726f206973206e6f74206120766160008201527f6c6964206f776e65720000000000000000000000000000000000000000000000602082015250565b6000613bce602983612faf565b9150613bd982613b72565b604082019050919050565b60006020820190508181036000830152613bfd81613bc1565b9050919050565b7f596f752073686f756c642073656e642065786163746c6c7920302e303031204560008201527f5448000000000000000000000000000000000000000000000000000000000000602082015250565b6000613c60602283612faf565b9150613c6b82613c04565b604082019050919050565b60006020820190508181036000830152613c8f81613c53565b9050919050565b7f596f752073686f756c642068617665204e465420636861726163746572000000600082015250565b6000613ccc601d83612faf565b9150613cd782613c96565b602082019050919050565b60006020820190508181036000830152613cfb81613cbf565b9050919050565b7f4e487b7100000000000000000000000000000000000000000000000000000000600052601160045260246000fd5b6000613d3c82612ef7565b9150613d4783612ef7565b9250828201905080821115613d5f57613d5e613d02565b5b92915050565b600081905092915050565b7f7b226e616d65223a202200000000000000000000000000000000000000000000600082015250565b6000613da6600a83613d65565b9150613db182613d70565b600a82019050919050565b6000613dc782612e67565b613dd18185613d65565b9350613de1818560208601612e83565b80840191505092915050565b7f202d2d204e465420233a20000000000000000000000000000000000000000000600082015250565b6000613e23600b83613d65565b9150613e2e82613ded565b600b82019050919050565b7f222c20226465736372697074696f6e223a20225468697320697320616e204e4660008201527f542074686174206c6574732070656f706c6520706c617920696e20746865206760208201527f616d65204d657461766572736520536c6179657221222c2022696d616765223a60408201527f2022000000000000000000000000000000000000000000000000000000000000606082015250565b6000613ee1606283613d65565b9150613eec82613e39565b606282019050919050565b7f222c202261747472696275746573223a205b207b202274726169745f7479706560008201527f223a20224865616c746820506f696e7473222c202276616c7565223a20000000602082015250565b6000613f53603d83613d65565b9150613f5e82613ef7565b603d82019050919050565b7f2c20226d61785f76616c7565223a000000000000000000000000000000000000600082015250565b6000613f9f600e83613d65565b9150613faa82613f69565b600e82019050919050565b7f7d2c207b202274726169745f74797065223a202241747461636b2044616d616760008201527f65222c202276616c7565223a2000000000000000000000000000000000000000602082015250565b6000614011602d83613d65565b915061401c82613fb5565b602d82019050919050565b7f7d205d7d00000000000000000000000000000000000000000000000000000000600082015250565b600061405d600483613d65565b915061406882614027565b600482019050919050565b600061407e82613d99565b915061408a8289613dbc565b915061409582613e16565b91506140a18288613dbc565b91506140ac82613ed4565b91506140b88287613dbc565b91506140c382613f46565b91506140cf8286613dbc565b91506140da82613f92565b91506140e68285613dbc565b91506140f182614004565b91506140fd8284613dbc565b915061410882614050565b9150819050979650505050505050565b7f646174613a6170706c69636174696f6e2f6a736f6e3b6261736536342c000000600082015250565b600061414e601d83613d65565b915061415982614118565b601d82019050919050565b600061416f82614141565b915061417b8284613dbc565b915081905092915050565b7f4572726f723a20636861726163746572206d757374206861766520485020746f60008201527f2061747461636b20626f73732e00000000000000000000000000000000000000602082015250565b60006141e2602d83612faf565b91506141ed82614186565b604082019050919050565b60006020820190508181036000830152614211816141d5565b9050919050565b7f4572726f723a20626f7373206d757374206861766520485020746f206174746160008201527f636b206368617261637465722e00000000000000000000000000000000000000602082015250565b6000614274602d83612faf565b915061427f82614218565b604082019050919050565b600060208201905081810360008301526142a381614267565b9050919050565b7f4e487b7100000000000000000000000000000000000000000000000000000000600052602160045260246000fd5b600381106142ea576142e96142aa565b5b50565b60008190506142fb826142d9565b919050565b600061430b826142ed565b9050919050565b61431b81614300565b82525050565b60006020820190506143366000830184614312565b92915050565b600061434782612ef7565b915061435283612ef7565b925082820390508181111561436a57614369613d02565b5b92915050565b7f4e487b7100000000000000000000000000000000000000000000000000000000600052603260045260246000fd5b60008190508160005260206000209050919050565b60006020601f8301049050919050565b600082821b905092915050565b6000600883026144017fffffffffffffffffffffffffffffffffffffffffffffffffffffffffffffffff826143c4565b61440b86836143c4565b95508019841693508086168417925050509392505050565b6000819050919050565b600061444861444361443e84612ef7565b614423565b612ef7565b9050919050565b6000819050919050565b6144628361442d565b61447661446e8261444f565b8484546143d1565b825550505050565b600090565b61448b61447e565b614496818484614459565b505050565b5b818110156144ba576144af600082614483565b60018101905061449c565b5050565b601f8211156144ff576144d08161439f565b6144d9846143b4565b810160208510156144e8578190505b6144fc6144f4856143b4565b83018261449b565b50505b505050565b600082821c905092915050565b600061452260001984600802614504565b1980831691505092915050565b600061453b8383614511565b9150826002028217905092915050565b61455482612e67565b67ffffffffffffffff81111561456d5761456c61332c565b5b614577825461376f565b6145828282856144be565b600060209050601f8311600181146145b557600084156145a3578287015190505b6145ad858261452f565b865550614615565b601f1984166145c38661439f565b60005b828110156145eb578489015182556001820191506020850194506020810190506145c6565b868310156146085784890151614604601f891682614511565b8355505b6001600288020188555050505b505050505050565b600060608201905061463260008301866130a6565b61463f60208301856131bc565b61464c60408301846131bc565b949350505050565b7f4552433732313a207472616e736665722066726f6d20696e636f72726563742060008201527f6f776e6572000000000000000000000000000000000000000000000000000000602082015250565b60006146b0602583612faf565b91506146bb82614654565b604082019050919050565b600060208201905081810360008301526146df816146a3565b9050919050565b7f4552433732313a207472616e7366657220746f20746865207a65726f2061646460008201527f7265737300000000000000000000000000000000000000000000000000000000602082015250565b6000614742602483612faf565b915061474d826146e6565b604082019050919050565b6000602082019050818103600083015261477181614735565b9050919050565b7f4552433732313a20617070726f766520746f2063616c6c657200000000000000600082015250565b60006147ae601983612faf565b91506147b982614778565b602082019050919050565b600060208201905081810360008301526147dd816147a1565b9050919050565b7f4552433732313a207472616e7366657220746f206e6f6e20455243373231526560008201527f63656976657220696d706c656d656e7465720000000000000000000000000000602082015250565b6000614840603283612faf565b915061484b826147e4565b604082019050919050565b6000602082019050818103600083015261486f81614833565b9050919050565b7f4e487b7100000000000000000000000000000000000000000000000000000000600052601260045260246000fd5b60006148b082612ef7565b91506148bb83612ef7565b9250826148cb576148ca614876565b5b828204905092915050565b60006148e182612ef7565b91506148ec83612ef7565b92508282026148fa81612ef7565b9150828204841483151761491157614910613d02565b5b5092915050565b600061492382612ef7565b91507fffffffffffffffffffffffffffffffffffffffffffffffffffffffffffffffff820361495557614954613d02565b5b600182019050919050565b6000819050919050565b61497b61497682612ef7565b614960565b82525050565b60008160601b9050919050565b600061499982614981565b9050919050565b60006149ab8261498e565b9050919050565b6149c36149be82613094565b6149a0565b82525050565b60006149d5828661496a565b6020820191506149e582856149b2565b6014820191506149f5828461496a565b602082019150819050949350505050565b6000614a1182612ef7565b9150614a1c83612ef7565b925082614a2c57614a2b614876565b5b828206905092915050565b600081519050919050565b600082825260208201905092915050565b6000614a5e82614a37565b614a688185614a42565b9350614a78818560208601612e83565b614a8181612ead565b840191505092915050565b6000608082019050614aa160008301876130a6565b614aae60208301866130a6565b614abb60408301856131bc565b8181036060830152614acd8184614a53565b905095945050505050565b600081519050614ae781612dd8565b92915050565b600060208284031215614b0357614b02612da2565b5b6000614b1184828501614ad8565b91505092915050565b7f4552433732313a206d696e7420746f20746865207a65726f2061646472657373600082015250565b6000614b50602083612faf565b9150614b5b82614b1a565b602082019050919050565b60006020820190508181036000830152614b7f81614b43565b9050919050565b7f4552433732313a20746f6b656e20616c7265616479206d696e74656400000000600082015250565b6000614bbc601c83612faf565b9150614bc782614b86565b602082019050919050565b60006020820190508181036000830152614beb81614baf565b905091905056fe4142434445464748494a4b4c4d4e4f505152535455565758595a6162636465666768696a6b6c6d6e6f707172737475767778797a303132333435363738392b2fa264697066735822122046f7d339f6ca8414ad8b1516bec8540ec0a73564423c8458d6e88c0d2da068d164736f6c63430008110033",
  "linkReferences": {},
  "deployedLinkReferences": {}
}